:0C011E00040C070B0D0E04080E0D0B075F
:0B00F300AF822FF8E6F5807F057E004D
:1000FE00E4FDFCC3ED9FEC9E5015E4FBFA0BBB0038
:0F010E00010AEB646E4A70F50DBD00010C80E430
:01011D0022BF
:10008F00E4F510F511E4F583F582740C1200F3A377
:10009F00E5826404458370F20511E51170020510C5
:1000AF00C3E510940140DEE4F5807FE87E03120083
:1000BF00FEE4F510F511E4F583F58274081200F3F0
:1000CF00A3E5826404458370F20511E51170020502
:1000DF0010C3E510940140DEE4F5807FE87E031243
:0400EF0000FE809CF3
:03000000020003F8
:0C000300787FE4F6D8FD75811102004AF8
:10000F0002008FE493A3F8E493A34003F68001F278
:10001F0008DFF48029E493A3F85407240CC8C333F2
:10002F00C4540F4420C8834004F456800146F6DFC1
:10003F00E4800B010204081020408090011EE47E32
:10004F00019360BCA3FF543F30E509541FFEE493B6
:10005F00A360010ECF54C025E060A840B8E493A37D
:10006F00FAE493A3F8E493A3C8C582C8CAC583CAA8
:10007F00F0A3C8C582C8CAC583CADFE9DEE780BE60
:01012A0000D4
:00000001FF
