:100000000C9446000C945B000C945B000C945B0019
:100010000C945B000C945B000C945B000C945B00F4
:100020000C945B000C945B000C945B000C945B00E4
:100030000C945B000C945B000C945B000C945B00D4
:100040000C945B000C945B000C945B000C945B00C4
:100050000C945B000C945B000C945B000C945B00B4
:100060000C945B000C945B000C945B000C945B00A4
:100070000C945B000C945B000C945B000C945B0094
:100080000C945B000C945B000C945B0011241FBE6D
:10009000CFEFD0E1DEBFCDBF11E0A0E0B1E0EAE2FA
:1000A000F2E002C005900D92A830B107D9F70E9486
:1000B0008B000C9413010C940000DF93CF9300D0BD
:1000C00000D000D0CDB7DEB79E838D831C821B820B
:1000D00012C01A82198205C089819A8101969A8379
:1000E000898389819A8184369105B0F38B819C81C3
:1000F00001969C838B832B813C818D819E81281767
:10010000390738F326960FB6F894DEBF0FBECDBF81
:10011000CF91DF910895DF93CF93CDB7DEB72797C7
:100120000FB6F894DEBF0FBECDBFEAE3F0E08081EA
:10013000EAE3F0E08FEF80831A8219822CC01C82E0
:100140001B821FC01E821D8212C0ABE3B0E08D81F6
:100150009E81FC01E050FF4F80818C9385E090E010
:100160000E945D008D819E8101969E838D838D818D
:100170009E818430910548F38B819C8101969C83FC
:100180008B838B819C818F3F9105E0F289819A81DD
:1001900001969A83898389819A818430910578F2C6
:1001A000EBE3F0E0108284E690E00E945D001A82AA
:1001B00019822CC01C821B821FC01E821D8212C08D
:1001C000ABE3B0E08D819E81FC01EC5FFE4F80814E
:1001D0008C9385E090E00E945D008D819E81019668
:1001E0009E838D838D819E818430910548F38B8120
:1001F0009C8101969C838B838B819C818F3F910591
:10020000E0F289819A8101969A83898389819A8112
:100210008430910578F2EBE3F0E0108284E690E020
:0A0220000E945D0089CFF894FFCF23
:08022A000102040808040201AE
:00000001FF
